:020000040800F2
:1000000000400120890E0008D90E0008D90E000812
:10001000D90E0008D90E0008D90E00080000000013
:10002000000000000000000000000000D90E0008E1
:10003000D90E000800000000D90E0008D90E0008F3
:10004000D90E0008D90E0008D90E0008D90E0008F4
:10005000D90E0008D90E0008D90E0008D90E0008E4
:10006000D90E0008D90E0008D90E0008D90E0008D4
:10007000D90E0008D90E0008D90E0008D90E0008C4
:10008000D90E0008D90E0008D90E0008D90E0008B4
:10009000D90E0008D90E0008D90E0008D90E0008A4
:1000A000D90E0008D90E0008D90E0008D90E000894
:1000B000D90E0008D90E0008D90E0008D90E000884
:1000C000D90E0008D90E0008D90E0008D90E000874
:1000D000D90E0008D90E0008D90E0008D90E000864
:1000E000D90E0008D90E0008D90E0008D90E000854
:1000F000D90E000800000000D90E0008D90E000833
:10010000D90E0008D90E0008D90E0008D90E000833
:10011000D90E0008D90E0008D90E00080000000012
:10012000D90E0008000000000000000000000000E0
:1001300000000000000000005FF808F108B5054865
:10014000054B1B1A062B00D808BD044B002BFBD017
:100150009847F9E7F8010020FB01002000000000AB
:1001600008B50748074B1B1A9B1003EBD3735910B4
:1001700000D108BD044A002AFBD09047F9E700BF30
:10018000F8010020F80100200000000010B5064C26
:10019000237843B9FFF7D2FF044B13B10448AFF300
:1001A00000800123237010BDF80100200000000032
:1001B0004C96000808B5074B1BB107480749AFF339
:1001C00000800748036813B1064B03B19847BDE8A8
:1001D0000840C5E7000000004C960008FC01002024
:1001E000F401002000000000014B0360704700BFD5
:1001F000988D000810B5034B0446036002F005FC1F
:10020000204610BD988D0008074B10B503F1180269
:1002100003604C330446C26503665C3002F014F997
:10022000024B2046236010BDF08E0008988D000818
:10023000A0F16000FFF7E8BFA0F15C00FFF7E4BFAA
:1002400010B50446FFF7E0FF204602F0DEFB204633
:1002500010BDA0F16000F3E7A0F15C00F0E7000042
:10026000F8B531484FF4164102F072F92F484FF4B7
:10027000805101F071FE2E484FF4805101F06CFE68
:100280002C484FF4805101F067FE2B484FF4805109
:1002900001F062FE29484FF4805101F05DFE2848CC
:1002A0004FF4805101F058FE264802F013F910F087
:1002B000FF0FF9D1234802F00DF9C7B2214802F02F
:1002C00009F906461F4802F005F946EA00261D48CE
:1002D00002F000F905461B4802F0FCF845EA00254B
:1002E000184802F0F7F80446164802F0F3F844EA1A
:1002F00000244FB90D48314601F0F0FE0C48294664
:1003000001F0ECFE0B480AE0012FCDD10A4831463E
:1003100001F0E4FE0948294601F0E0FE08482146C4
:1003200001F0DCFEC0E700BF64020020D80200201C
:100330004402002034020020540200202402002045
:1003400014020020C002002010B5134C00232046E8
:100350000221032202F026F8104A2046104902F03A
:100360004FFB1048262101F047FE0F48282101F0DD
:1003700043FE0E48292101F03FFE0D481D2101F0EA
:100380003BFE0C481E2101F037FEBDE810400A4834
:100390001F2101F031BE00BF640200203C0100209B
:1003A00009020008D8020020440200203402002084
:1003B0005402002024020020140200202DE9F04104
:1003C0000568C3682A69044622F440521343006951
:1003D000A2682B61EB6861691043E26923F416435C
:1003E0000143114323F00C030B43EB606969A369DC
:1003F00021F440710B43B2F5004F6B61554B36D081
:100400009D4258D001F06CFB636800EB80009B00BC
:1004100000EB8000B0FBF3F701F062FB4E4E636827
:10042000A6FB072700EB80007F0900EB80009B0004
:100430003F01B0FBF3F801F053FB636800EB800071
:1004400000EB80009B00B0FBF3F3A6FB03236422C8
:100450005B0902FB13884FEA081808F13208A6FB73
:100460000836C6F343163743AF60BDE8F0819D42BE
:100470003DD001F035FB636800EB80005B0000EBD2
:100480008000B0FBF3F701F02BFB334E00EB800054
:10049000A6FB0737636800EB80005B00B0FBF3F856
:1004A00001F01EFB63687F0900EB80003F0100EB59
:1004B00080005B00C7E701F02BFB636800EB800066
:1004C0009B0000EB8000B0FBF3F701F021FB224E14
:1004D0006368A6FB072700EB80009B007F0900EB09
:1004E00080003F01B0FBF3F801F012FBA5E701F03B
:1004F0000FFB636800EB80005B0000EB8000B0FB4B
:10050000F3F701F005FB636800EB80005B0000EB94
:100510008000B0FBF3F801F0FBFA636800EB8000A9
:100520000D4E00EB80005B00B0FBF3F3A6FB032352
:10053000A6FB07275B09642202FB13831B013233EE
:10054000A6FB03267F093F01C6F343163743AF607E
:10055000BDE8F081003801401F85EB51704700BFB6
:1005600038B5044628B390F83930FBB1236802222D
:1005700084F83920DA68204622F40052DA60FFF766
:100580001DFF236800221869012120F490401861A2
:100590005D69104625F02A055D61DD6845F400556A
:1005A000DD6084F83A2084F8391038BDFFF7D6FFB3
:1005B000DCE7012038BD00BF036870B51B6900216E
:1005C000012204469847431C05460ED02368204666
:1005D0001B690021022298472368064629461B69A9
:1005E000204600229847304670BD70BD084A094B2E
:1005F00010B4026003F58071002453F8042B82428A
:1006000008BF43F8044C8B42F7D15DF8044B7047A8
:10061000C08D0008E80200200A4A0B4B10B503F514
:10062000807104460260002053F8042B944208BFF6
:1006300043F8040C8B42F7D1204602F0E6F920463D
:1006400010BD00BFC08D0008E80200200248022152
:10065000032201F07DBD00BF98050020F0B50E46D5
:1006600085B03549054604F04EF920B9334B1B6877
:1006700063B105B0F0BD2846314904F044F978B9BA
:100680002E4B1B6843B1012005B0F0BD0190FFF770
:10069000DDFF019805B0F0BDFFF7D8FF0120E8E7C6
:1006A0002846284904F02FF910B3274B002402E014
:1006B0000134402C21D053F8040F0028F8D12B78B6
:1006C0003A2B32D0294602A801F008FE02A801F018
:1006D00057FE90B102A801F03BFE88B102A801F0DC
:1006E00041FE03464BB1194AE01C42F82430C0E7F2
:1006F000124B1B68ABB10220BBE74FF0FF30B8E7ED
:1007000002A801F019FE05460028F6D0036802A8E9
:100710009F6801F00FFE324601462846B84703465F
:10072000E0E7FFF793FF0220A3E72846084902AA63
:1007300004F07AF8029BD5E7A08D00082804002079
:10074000B08D0008A88D0008E4020020E802002017
:10075000E88D0008022808B50BDD084BC21E53F8CF
:100760002200002143F8221028B103685B689847F3
:1007700008BD002008BD4FF0FF3008BDE802002092
:10078000022870B50C4616460FDC0E4B1B680BB9E1
:10079000FFF75CFFA51936B114F8011B0A4801F0F8
:1007A00091FDAC42F8D1304670BD084B033853F888
:1007B000200018B103681B68984770BD4FF0FF30E8
:1007C00070BD00BF2804002098050020E80200202A
:1007D000022810B50C4609DC0D4B1B688BB10D4887
:1007E00001F064FD01232070184610BD0A4B033848
:1007F00053F8200040B103689B68984703461846A9
:1008000010BDFFF723FFEAE74FF0FF33ECE700BF2F
:100810002804002098050020E8020020022808B5DE
:1008200008DD074B033853F8200028B10368DB6864
:10083000984708BD012008BD4FF0FF3008BD00BF3C
:10084000E8020020022808B508DD074B033853F8FA
:10085000200028B103681B69984708BD002008BD27
:100860004FF0FF3008BD00BFE8020020022808B5A5
:1008700004D84FF400534B60002008BD02F0DAF8B2
:10088000092303604FF0FF3008BD00BF08B5012009
:1008900002F0D6F8704700BF08B500F0F3FAFFF792
:1008A000F9FFBDE80840FFF7DBBC00BF074A13684B
:1008B0001844EFF30881884202D21060184670474E
:1008C000034B0C221A604FF0FF30704740010020AC
:1008D000B4050020074C08B523680546986802F067
:1008E000CDF92368D86802F0C9F905B9FEE700F030
:1008F0002FF9FBE7A8010020002103F0DCBE00BFB8
:1009000002F0FAB92DE9F00F002382B0D1F800B05F
:10091000864E03E00133102B00F09C8001249C40A4
:1009200004EA0B02A242F5D14C6824F0100CBCF191
:10093000020F00F093805D000327AF4004F003092D
:1009400009FA05F9D0F80080FF4307EA08080CF11E
:10095000FF3C48EA0908BCF1010F0097C0F800808D
:1009600040F2AA808F68D0F80CC007FA05F5DDF8D0
:10097000008008EA0C073D43C560E500CAD503F0D6
:100980000307BF004FF00F0C0CFA07FCDFF8A09133
:1009900023F00305D9F8208005F1804548F00108CF
:1009A000C9F8208005F58035D5F8088028EA0C0CB8
:1009B000DFF88081404500F09880A9F550594845FE
:1009C00000F09580DFF87081404500F09580DFF8F9
:1009D0006C91484500F09580DFF86481404500F057
:1009E0009580DFF86091484500F09580DFF85881E8
:1009F000404500F09580DFF8548140450CBF4FF032
:100A000007084FF0080808FA07F747EA0C07AF6035
:100A10003768D54314F4803F14BF17432F40376025
:100A2000776814F4003F14BF17432F407760B7680E
:100A300014F4801F14BF17432F40B760F768A40257
:100A400003F1010354BF05EA07023A43102BF26099
:100A50007FF464AF02B0BDE8F00F70470D6903F09A
:100A600007094FEA89094FF00F0A0AFA09FA032722
:100A700005FA09F95D00AF4004F0030808FA05F82B
:100A80004FEAD30C00EB8C0C0097DCF82070019738
:100A9000009FFF430097019F27EA0A0A4AEA0909D3
:100AA000CCF82090D0F800C0DDF8009009EA0C0CDA
:100AB0004CEA0808C0F80080CF68C4F3001807FAB1
:100AC00005F908FA03F8D0F808C0009F07EA0C0CF3
:100AD0004CEA090CC0F808C0D0F804C02CEA020C9B
:100AE0004CEA080CC0F804C03CE700278DE74FF043
:100AF000010808FA07F788E74FF0020808FA07F735
:100B000083E74FF0030808FA07F77EE74FF0040881
:100B100008FA07F779E74FF0050808FA07F774E7CE
:100B20004FF0060808FA07F76FE700BF000401401E
:100B3000003802400000024000080240000C024061
:100B40000010024000180240001C02400014024045
:100B500008B572B6962001F0B5FD962001F0B2FD01
:100B6000F8E700BF0F4A30B4936894681A46B4F1AE
:100B7000006F04D030BC103042F8201070470A4A91
:100B800003F5927553F8044BAB4242F8044FF9D188
:100B9000044B4FF0005210309A6030BC42F82010E5
:100BA000704700BF00ED00E0FCFFFF1F704700BF73
:100BB00008B5094B03201A6842F004021A601A684B
:100BC00042F002021A6000F0BBFF0F2000F0EEFFBF
:100BD000FFF7ECFF002008BD003C0240024B1A6802
:100BE00001321A60704700BFE8030020014B18680B
:100BF000704700BFE8030020B0F1804F10B40368D5
:100C000017D0154A904214D002F58062904210D05D
:100C100002F5806290420CD002F57C42904208D0EE
:100C200002F58062904208D002F58062904208D1BD
:100C300003E04A6823F070031343CA6823F4407347
:100C400013438C68096801220360C46281625DF805
:100C5000044B4261704700BF00040040704700BF72
:100C600010B5044690B190F8353063B121460223A7
:100C700051F8040B84F83530FFF7BEFF012384F8E8
:100C80003530002010BDFFF7E9FFEFE7012010BD70
:100C9000012303FA01F1036810B41A6A8CB222EA44
:100CA00004021A621A6A0020114319621A685DF878
:100CB000044B42F001021A60704700BF704700BF4A
:100CC00010B5044690B190F8353063B12146022347
:100CD00051F8040B84F83530FFF78EFF012384F8B8
:100CE0003530002010BDFFF7E9FFEFE7012010BD10
:100CF000012303FA01F1036810B41A6A8CB222EAE4
:100D000004021A621A6A0020114319621A685DF817
:100D1000044B42F001021A60704700BF90F8343073
:100D2000F0B4012B3BD00124022380F8344080F83A
:100D300035300C2A2AD8DFE802F0072929295B2957
:100D4000292981292929350003680D681A6A8F68C5
:100D500022F001021A621A6A5E689C6922F002029D
:100D600024F0730C4C683A434CEA05055E609D61C3
:100D70005C631A629C69CA6844F0080199619969C8
:100D800021F00401996199690A439A6100230122C3
:100D900080F8352080F83430F0BC184670470220C7
:100DA000F0BC70470368D1F800C01A6A8F6822F45B
:100DB00080521A621A6A5E68DD694C6822F4005239
:100DC00025F4E64542EA073245EA0C255E60DD611E
:100DD0001C641A62DA69C96842F40062DA61DA698D
:100DE00022F48062DA61DA6942EA0122DA61CDE74F
:100DF0000368D1F800C01A6A8F6822F010021A62E4
:100E00001A6A5E689D694C6822F0200225F4E64566
:100E100042EA071245EA0C255E609D619C631A62F6
:100E20009A69C96842F400629A619A6922F4806200
:100E30009A619A6942EA01229A61A7E703680D68FC
:100E40001A6A8F6822F480721A621A6A5E68DC6914
:100E500022F4007224F0730C4C6842EA07224CEA38
:100E600005055E60DD61DC631A62DC69CA6844F016
:100E70000801D961D96921F00401D961D9690A430E
:100E8000DA6183E700F0E4BE002100F004B80D4B06
:100E90005B58435004310C480C4B42189A42FFF403
:100EA000F6AF0B4A00F003B8002342F8043B094BAD
:100EB0009A42FFF4F9AF00F0BFFF02F0F7F8FFF736
:100EC000EBFC7047789600083C010020F8010020F8
:100ED000F8010020B8050020FFF7FEBFF8B5036851
:100EE0000546DE075FD5BB4A916801F00C01082971
:100EF00000F07A81916801F00C010C2900F07081FA
:100F0000B54B00221A70FFF771FE4FF4003407460C
:100F1000B04E06E0FFF76AFEC01BB0F5FA7F00F2A4
:100F2000048294FAA4F3B3FA83F343F02003C3F3E7
:100F30004213012B0CBF3268726B94FAA4F3B3FA1C
:100F400083F303F01F0322FA03F3D907E2D4A24B81
:100F50002A791A706B68002B00F0D282FFF746FEE8
:100F60004FF4003407469B4E06E0FFF73FFEC01BE0
:100F7000B0F5FA7F00F2D98194FAA4F3B3FA83F3BF
:100F800043F02003C3F34213012B0CBF3268726B92
:100F900094FAA4F3B3FA83F303F01F0322FA03F3E2
:100FA000DA07E2D52B68980750D58A4A916801F094
:100FB0000C01042900F04382916801F00C010C2916
:100FC00000F03982EB68002B00F00582012393FAD0
:100FD000A3F3B3FA83F3DBB29B0003F1844303F57D
:100FE0008E0301221A60FFF701FE02240746794EA4
:100FF00005E0FFF7FBFDC01B642800F2968194FA20
:10100000A4F3B3FA83F343F02003C3F34213012B99
:101010000CBF3268726B94FAA4F3B3FA83F303F053
:101020001F0322FA03F3DB07E3D56A4B4FF4F852B0
:10103000596892FAA2F2B2FA82F22B69D2B29340C4
:1010400021F4F851634A0B4353602B68D9066ED4E0
:10105000190729D56B690122002B00F0988192FABB
:10106000A2F2B2FA82F25D4BD2B2012143F8221011
:10107000FFF7BCFD02240746564E05E0FFF7B6FD1C
:10108000C01B642800F2518194FAA4F3B3FA83F3ED
:10109000726B94FAA4F3B3FA83F303F01F0322FAFA
:1010A00003F3DA07EAD52B68580700F1BF806B6AB3
:1010B000002B3AD0474A926802F00C020C2A00F04A
:1010C000B380022B4FF0807300F0468293FAA3F3B3
:1010D000B3FA83F3DBB29B0003F1844303F58E0381
:1010E00000221A60FFF782FD4FF000740646394D6A
:1010F00005E0FFF77BFD801B642800F2168194FA5F
:10110000A4F3B3FA83F343F02003C3F34213012B98
:101110000CBF2A686A6B94FAA4F3B3FA83F303F062
:101120001F0322FA03F3DB07E3D40020F8BD294AAA
:10113000296A506820F4604001435160926812F0BF
:101140000C0F00F0F480AB69002B00F0A6814FF487
:10115000807393FAA3F3B3FA83F3DBB29B0003F13A
:10116000844303F58E0301221A60FFF73FFD4FF41D
:1011700000740746174E05E0FFF738FDC01B6428D2
:1011800000F2D38094FAA4F3B3FA83F343F020037C
:10119000C3F34213012B0CBF3268726B94FAA4F3B1
:1011A000B3FA83F303F01F0322FA03F3DB07E3D55B
:1011B000084B4FF07F42596892FAA2F2B2FA82F2DB
:1011C000EB69D2B2934021F07F41024A0B43536056
:1011D0002B683DE700380240023802408006474253
:1011E0009268D4037FF58CAE4FF4003292FAA2F2EB
:1011F000B2FA82F242F02002C2F34212012AC44A39
:101200000CBF1168516B4FF4003292FAA2F2B2FA9D
:1012100082F202F01F0221FA02F2D0077FF5C3AE7C
:101220006A68012A3FF4BFAE0120F8BDB84AB94B45
:10123000516A1C4641F0805151621A6842F4807232
:101240001A60FFF7D3FC064604E0FFF7CFFC801BD3
:1012500064286AD82368D905F7D54FF4807292FACA
:10126000A2F2B2FA82F2AC4BD2B2002143F82210C1
:101270004FF4806292FAA2F2B2FA82F2D2B243F84A
:101280002210FFF7B3FC4FF400740746A04E05E0B0
:10129000FFF7ACFCC01BB0F5FA7F46D894FAA4F374
:1012A000B3FA83F3726B94FAA4F3B3FA83F303F003
:1012B0001F0322FA03F3DA07EAD4AB68002B40F0ED
:1012C000B7814FF4807292FAA2F2B2FA82F2924B94
:1012D000D2B2002143F822104FF4806292FAA2F2B7
:1012E000B2FA82F2D2B243F82210AB68012B00F0BE
:1012F000B781FFF77BFC864E07464FF4007494FAE3
:10130000A4F3B3FA83F3726B94FAA4F3B3FA83F3FE
:1013100003F01F0322FA03F3D8077FF5C8AEFFF7E7
:1013200065FCC01BB0F5FA7FE9D90320F8BD4FF486
:10133000007292FAA2F2B2FA82F242F02002C2F3F2
:101340004212012A724A0CBF1168516B4FF40072AD
:1013500092FAA2F2B2FA82F202F01F0221FA02F22B
:10136000D20703D5AA69012A7FF45EAF684A4FF01D
:101370007F41506891FAA1F1B1FA81F1EA69C9B2ED
:101380008A4020F07F40624902434A6060E692FA58
:10139000A2F2B2FA82F2604BD2B2002143F82210DC
:1013A000FFF724FC02240746594E04E0FFF71EFC19
:1013B000C01B6428B9D894FAA4F3B3FA83F3726B10
:1013C00094FAA4F3B3FA83F303F01F0322FA03F3AE
:1013D000DB07EBD467E6012393FAA3F3B3FA83F3B5
:1013E000DBB29B0003F1844303F58E0300221A60F5
:1013F000FFF7FCFB02240746454E04E0FFF7F6FB2F
:10140000C01B642891D894FAA4F3B3FA83F343F091
:101410002003C3F34213012B0CBF3268726B94FAA2
:10142000A4F3B3FA83F303F01F0322FA03F3D807FC
:10143000E4D42B680AE69268D1033FF5C3AD0222DB
:1014400092FAA2F2B2FA82F242F02002C2F34212FF
:10145000012A2F4A0CBF1168516B022292FAA2F2A4
:10146000B2FA82F202F01F0221FA02F2D20703D589
:10147000EA68012A7FF4D8AE254A4FF4F851506843
:1014800091FAA1F1B1FA81F12A69C9B28A4020F436
:10149000F8501F4902434A60D8E54FF4807393FA2D
:1014A000A3F3B3FA83F3DBB29B0003F1844303F5A8
:1014B0008E0300221A60FFF799FB4FF40074074671
:1014C000134E05E0FFF792FBC01B64283FF62DAFDB
:1014D00094FAA4F3B3FA83F343F02003C3F3421363
:1014E000012B0CBF3268726B94FAA4F3B3FA83F346
:1014F00003F01F0322FA03F3D807E3D42B68A7E510
:10150000FFF774FB4FF400340746014E0DE000BFB7
:10151000003802400070004080064742FFF766FB3B
:10152000C01BB0F5FA7F3FF600AF94FAA4F3B3FA0C
:1015300083F343F02003C3F34213012B0CBF326843
:10154000726B94FAA4F3B3FA83F303F01F0322FA45
:1015500003F3DB07E2D425E593FAA3F3B3FA83F3AD
:10156000DBB29B0003F1844303F58E0300221A6073
:10157000FFF73CFB4FF0007407464F4E05E0FFF7C6
:1015800035FBC01B64283FF6D0AE94FAA4F3B3FA3F
:1015900083F343F02003C3F34213012B0CBF3268E3
:1015A000726B94FAA4F3B3FA83F303F01F0322FAE5
:1015B00003F3D907E3D4404BEC6AA86A9A68296B15
:1015C0002043014322F47D020A439A604FF0807366
:1015D00093FAA3F3B3FA83F3DBB29B0003F18443E2
:1015E00003F58E0301221A60FFF700FB4FF0007431
:1015F0000646314D05E0FFF7F9FA801B64283FF6F7
:1016000094AE94FAA4F3B3FA83F343F02003C3F344
:101610004213012B0CBF2A686A6B94FAA4F3B3FA45
:1016200083F303F01F0322FA03F3DA07E3D57CE523
:10163000012B32D04FF4807292FAA2F2B2FA82F207
:101640001E4BD2B2002143F822104FF4806292FA6E
:10165000A2F2B2FA82F20121D2B243F8221044E699
:10166000FFF7C4FA144E07464FF4007494FAA4F33B
:10167000B3FA83F3726B94FAA4F3B3FA83F303F02F
:101680001F0322FA03F3DB073FF511ADFFF7AEFAB4
:10169000C01BB0F5FA7FE9D947E64FF4806292FAB1
:1016A000A2F2B2FA82F2054BD2B2002143F8221024
:1016B0004FF48072CBE700BF0038024080064742FB
:1016C000B64B2DE9F0411A680C4602F001028A423D
:1016D00005460CD201291A6800F08E8022F0010222
:1016E00041EA02041C6001201B68BDE8F081036828
:1016F0009E0706D5AA4A8168906820F0F000014351
:101700009160D80711D4012C00F0FD80A34B1A681A
:1017100022F0010222431A601B6803F00103A34276
:1017200000F0C2800120BDE8F0816B68022B00F060
:10173000D580032B00F0ED80012B00F033814FF4B6
:10174000007292FAA2F2B2FA82F242F02002C2F3DE
:101750004212012A924A0CBF1168516B4FF4007279
:1017600092FAA2F2B2FA82F202F01F0221FA02F217
:10177000D107D7D58A4F41F28838BA6822F00302E0
:101780001343BB60FFF732FA6B680646022B15D095
:10179000032B1FD0012B06D128E0FFF727FA801B6F
:1017A000404500F2AD80BB6813F00C0FF5D1AAE7FD
:1017B000FFF71CFA801B404500F2A280BB6803F0D3
:1017C0000C03082BF4D19EE7FFF710FA801B40456D
:1017D00000F29680BB6803F00C030C2BF4D192E767
:1017E000FFF704FA801B404500F28A80BB6803F0D3
:1017F0000C03042BF4D186E742F004021A601A6845
:1018000042F001021A601B68D8078BD52B68990734
:1018100006D5634AA968906820F0F0000143916002
:10182000DA0742D56B68022B00F0CC80032B00F066
:10183000A380012B00F0D8804FF4007292FAA2F23C
:10184000B2FA82F242F02002C2F34212012A544A52
:101850000CBF1168516B4FF4007292FAA2F2B2FA07
:1018600082F202F01F0221FA02F2D7077FF55AAF87
:101870004B4E41F28837B26822F003021343B36043
:10188000FFF7B4F96B680446022B59D0032B62D0E2
:10189000012B05D16AE0FFF7A9F9001BB8422FD848
:1018A000B36813F00C0FF6D12B685A0706D53C4AE3
:1018B000E968906820F4E060014391601B0707D558
:1018C000374B29699A6822F4605242EAC1029A6051
:1018D0000F2000F06BF90020BDE8F0814FF40032DA
:1018E00092FAA2F2B2FA82F242F02002C2F342125B
:1018F000012A2B4A0CBF1168516B4FF400322FE7BD
:101900000320BDE8F081254B1A6842F004021A60FA
:10191000FCE64FF0007292FAA2F2B2FA82F242F0C2
:101920002002C2F34212012A1D4A0CBF1168516BFA
:101930004FF0007214E7FFF759F9001BB842DFD8E7
:10194000B36803F00C03082BF5D1ADE7FFF74EF9B0
:10195000001BB842D4D8B36803F00C030C2BF5D1AC
:10196000A2E7FFF743F9001BB842C9D8B36803F0F8
:101970000C03042BF5D197E74FF0007292FAA2F214
:10198000B2FA82F242F02002C2F34212012A044A61
:101990000CBF1168516B4FF000725EE7003C0240D3
:1019A00000380240022292FAA2F2B2FA82F242F027
:1019B0002002C2F34212012A134A0CBF1168516B74
:1019C0000222CDE64FF4003292FAA2F2B2FA82F28B
:1019D00042F02002C2F34212012A0B4A0CBF1168E6
:1019E000516B4FF4003238E7022292FAA2F2B2FAB7
:1019F00082F242F02002C2F34212012A024A0CBFD4
:101A00001168516B022228E70038024021498A6898
:101A100002F00C03082B3AD00C2B14D0042B10D05E
:101A200048684FF4604393FAA3F3B3FA83F3DBB24D
:101A300000F46040D8404FF40043013003FA00F056
:101A40007047154870474FF4701191FAA1F1B1FA3F
:101A500081F102F47013C9B223FA01F10F484FF477
:101A60004003415C93FAA3F3B3FA83F3DBB202F4CD
:101A70004002DA4007480A4B80689B5CC2034CBFB7
:101A800008480548B1FBF3F300FB03F07047054835
:101A9000704700BF003802400024F400F88D0008B1
:101AA000148E000800127A0008B5FFF7AFFF094B4B
:101AB000F0229B6892FAA2F2B2FA82F203F0F003EB
:101AC000D2B223FA02F20449044B8A5CD040186077
:101AD00008BD00BF00380240048E00084401002009
:101AE00008B5FFF7E1FF084A4FF4E063926893FA04
:101AF000A3F3B3FA83F302F4E062DBB222FA03F356
:101B0000024AD35CD84008BD00380240048E000869
:101B100008B5FFF7C9FF084A4FF46053926893FA7B
:101B2000A3F3B3FA83F302F46052DBB222FA03F3B5
:101B3000024AD35CD84008BD00380240048E000839
:101B4000074A4FF6FF01D36800F007000B4043F04F
:101B5000BF6343F4003343EA0023D360704700BF00
:101B600000ED00E070B50F4C2368DA68910715D4DA
:101B7000DA68520709D56FF004020B4E1A615D6AEC
:101B80003368EB1AB3F57A7F00D270BDFFF726F801
:101B9000236805F57A7235609A6370BD00F062FDC6
:101BA0002368E5E724050020EC03002038B5204B2E
:101BB000204C5A6A002542F008025A629A6942F0A3
:101BC00008029A619A6922F008029A6100F040F8CE
:101BD000194A1A4B11681A4AA3FB0101890C4FF0EC
:101BE000FF33013920462260E36061602561A56012
:101BF000FFF736F82E201349FEF7B4FF124B4FF4CF
:101C000080425A6029462046FFF742F820460421C8
:101C1000FFF73EF823680D4C5A6A284602F57A71A0
:101C20009963D968226041F00402DA6038BD00BFD0
:101C300000380240240500204401002083DE1B43BD
:101C4000000C0040651B000800E100E0EC030020F0
:101C50001E4B10B49B6803F00C030C2B08D8DFE874
:101C600003F0070707071C0707071E0707072000E1
:101C7000164B4FF400425B68C3F34233013302FA60
:101C800003F3124A12489168124AC1F30311415CEE
:101C90005DF8044BCB40136070470F4BF1E70F4BDF
:101CA000EFE70A4A0E4C916893689068C1F383414C
:101CB000C3F38152C303615C54BF074B074B01322E
:101CC00003FB01F3B3FBF2F3DBE700BF0038024094
:101CD000188E0008440100200024F40000127A004D
:101CE000288E000830B5022393B093FAA3F3B3FA19
:101CF00083F343F02003C3F34213012B254B0CBFA6
:101D00001A685A6B022393FAA3F3B3FA83F303F02E
:101D10001F0322FA03F3DB0728D41E4A1E4B546A22
:101D2000032144F0805454621A6822F4C05242F4F1
:101D300000621A600591B0B1052306934FF4800349
:101D40004FF480314FF400220024022505A811939E
:101D500008940E950F911092FFF7C0F8034640B11A
:101D6000204613B030BD01230693E7E7002013B0EF
:101D700030BD03220F24684601210293039304938C
:101D800000940192FFF79CFCD0F1010038BF0020C5
:101D900013B030BD00380240007000401C4BF0B55D
:101DA0005A6A1C4C42F080525A62236893B023F462
:101DB000C05343F40063236000250327012602215A
:101DC0004FF480224FF4800305A8059706950F95E0
:101DD00008960E9110921193FFF780F8A8B9224649
:101DE000536813F01003FBD103220F24684601212E
:101DF00002930393049300940192FFF761FCD0F1E6
:101E0000010038BF002013B0F0BD284613B0F0BD6C
:101E1000003802400070004008B50120FFF762FF63
:101E200000B108BDFFF75EFF0028FAD1FFF7B6FF4B
:101E30000028F6D1FEE700BF70B5164C164B22689D
:101E4000164942F480722260A2684FF0006013408D
:101E5000A3602368002523F0885323F00113236037
:101E600022680F4B22F480222260A6680D4A26F4D5
:101E70007D06A660E56088601A60FEF799FEFFF7B0
:101E8000CBFFA36943F00803A361A36923F0080310
:101E9000A36170BD003802400CC0FF8800ED00E077
:101EA000440100200024F40030B50368294A87B0BB
:101EB00004460D4608461360002106F015FF002871
:101EC00045D128464FF07E5106F02CFF08B14FF067
:101ED0007E55A06806F012FD294606F067FD06F063
:101EE0002BFF94F90430602500210422013BE060BF
:101EF0000290019503910492282B20D8DFE803F08B
:101F00001525231F1F21151F1F1F1F1F1F1F1F25E3
:101F1000231F152115211525232523212115211FD7
:101F20001F1F1F1F1F2115252300042401A9094875
:101F30002246FEF7F3FE21460648FEF7D9FE07B01B
:101F400030BD0024F2E70C24F0E70824EEE700257A
:101F5000BFE700BFF00300202DE9F8430668234CDB
:101F6000D0F8088005460F462660B8F1000F39D03A
:101F7000C06806F0C3FC8146404606F0BFFC01463F
:101F8000484606F0C7FD4FF07E51804606F0CAFE77
:101F900008B14FF07E58326A41F2111313401BB959
:101FA000336823F001033360FFF752FE104A114BF0
:101FB00016680E48A3FB0616B60C00237A1E013ED7
:101FC000E2602361A3606660FEF77AFE2846414620
:101FD000FFF76AFF2368AF601A6842F001021A60D7
:101FE000BDE8F8834FF00008D5E700BFF0030020FC
:101FF0004401002083DE1B4338B50D4604462E49BC
:10200000284600F015FB431C206046D0B0F1804FFD
:1020100033D02A4B984220D0294B984233D103F534
:102020000C335A6A42F004025A62264B984205D198
:1020300003F594331A6A42F010021A6228461E49C8
:1020400000F0C2FA00232571A360E360204644F645
:102050002061BDE83840FFF77FBF03F50D335A6AB2
:1020600042F002025A62184B9842DED103F59633D1
:102070001A6A42F008021A62E0E7144B5A6A42F008
:1020800001025A62EFE7124B98420BD103F50B3372
:102090005A6A42F008025A62D0E70E4800F082FA0B
:1020A0002068B3E70C4B9842DDD103F598331A6AE8
:1020B00042F004021A62C1E7649000080004004084
:1020C0000008004000100140000C014000380240B0
:1020D000000C0040348E00080008014038B504466A
:1020E000084606F00FFC0546A06806F007FC01460E
:1020F000284606F00FFD01462046BDE83840FFF7B0
:10210000D3BE00BF114B0169F0B490F91970066895
:102110008568C468D9604169002201371E605D602E
:102120009C6019619A610AD0F0BC90F918200748A8
:1021300001320CBF04220C225A61FEF711BA0822A8
:102140000248F0BC5A61FEF70BBA00BF5C050020E4
:10215000F8B504460E4608464049154600F068FAB0
:102160003F490746284600F063FA0146384600F02A
:102170004DFA411C20605DD03A4B98423BD03A4B1F
:1021800098422FD0394B984248D103F5F833596A19
:10219000022241F480215962626030462F4900F0EA
:1021A00013FA28462E4900F00FFA721C03D030466D
:1021B000012100F0FDFA6B1C03D02846012100F03C
:1021C000F7FA00234FF41652A260E36023616361C3
:1021D000267665762046FFF795FF234A23689342CB
:1021E00012D0F8BD03F5FA33596A012241F40031E7
:1021F00059626260D1E703F58033196A002241F425
:10220000804119626260C8E7194B214601241C60B5
:1022100018481C22BDE8F84000F0D8BF164B984281
:102220000FD103F5F633596A032241F400215962B4
:102230006260B2E711481249502200F09DF920680F
:102240009AE7104B9842A8D103F5F433596A042257
:1022500041F48011596262609FE700BF90910008CD
:102260001090000800380140004400400048004041
:102270002804002098050020004C0040588E0008DB
:10228000748E0008005000408160FFF73BBF00BF24
:1022900010B4044B44680448196040F824205DF8E9
:1022A000044B7047400400202C040020026813688F
:1022B0009B06FCD5024B50681A60C0B2704700BF45
:1022C0005C050020026813681B06FCD5024BC9B2EE
:1022D00051601A60704700BF5C05002038B50023CC
:1022E000036043600A7804462F2A01D0204638BD97
:1022F0004A78002AFAD0481C20604A782F2A14D045
:10230000B2B18D1C194600E052B125602A782B46E7
:102310002F2A01F1010105F10105F5D101332360F7
:1023200000F0F8FA6060204638BD19460346F5E72C
:102330001146F5E70068704710B50446406828B1BB
:1023400000F006FB012801D1606810BD002010BD1F
:10235000406808B528B100F0FBFAD0F1010038BFA1
:10236000002008BD10B50446406830B100F0F0FA16
:1023700018B9606808B1043810BD002010BD00BF56
:102380004068003018BF0120704700BF00F0E8B877
:10239000A0F15C00FFF7FABF00F0E6B8A0F15C0026
:1023A000FFF7FABF38B504461D4600F0A5F82946E8
:1023B00004F15C0000F06CF8054B204603F10801C5
:1023C00003F1200254332160E265236638BD00BF6B
:1023D000E88E000800207047F8B58E18B1420F460D
:1023E00005460FD00C4601E0A64209D02B682846CE
:1023F0005B6A14F8011B98470130F5D1E01BF8BD6A
:10240000F01BF8BD0020F8BDF8B58E18B1420F469C
:1024100005460FD00C4603E004F8010BA64207D096
:102420002B6828469B6A9847431CF5D1E01BF8BDF2
:10243000F01BF8BD0020F8BD002070470020704759
:10244000002070470020704710B5074B044603F189
:1024500008023C3380E80C00406900F059FB20463C
:1024600000F078FA204610BD488F0008A0F1040063
:10247000FFF7EABF10B50446FFF7E6FF204600F07D
:10248000C4FA204610BD00BFA0F10400FFF7F2BF60
:1024900010B584B0044600F08DFA0B4B002203F116
:1024A00008013C3384E80A00626101A8224607491A
:1024B00002F096F9064901A800F012FD6061FEF7EE
:1024C0001BFA204604B010BD488F0008E88D0008B4
:1024D000908F000810B50446406900F0CFFB60699A
:1024E000BDE81040FEF70CBAC1EBC10100EB810062
:1024F000203000F079BA00BFF8B5134B0025044630
:1025000080E828000E468560C560056145618561EB
:102510000577457729462030174600F05FFA2946AF
:1025200004F13C0000F05AFA251D4FF416533146D1
:102530003A46A3652846FFF70BFE28462246034984
:10254000FFF7A6FE2046F8BD988D0008E924000894
:1025500038B504460D460430FFF796FEA56538BD34
:102560000430FFF7A3BE00BF10B504300C46FFF7E0
:10257000A9FE204610BD00BF10B5084B04461868E0
:1025800082B00B46C06806490092224600F0B2FCB9
:1025900002B0BDE81040FEF7DBBA00BFA801002082
:1025A000948F00080FB400B5064A83B004AB1268DC
:1025B00053F8041BD0681A46019300F0DFFF012096
:1025C00000F03EFAA8010020431C10B5044619D0C3
:1025D00091F90030581C04D10FE011F90C3F5A1C3E
:1025E0000BD09C42F9D12046896800F0B1F8204612
:1025F0000021BDE8104000F0DBB80348BDE8104002
:10260000FFF7D0BF10BD00BFC88F0008884208B5D3
:102610000AD0431C07D0013106D00448FFF7C2FF9F
:102620004FF0FF3008BD084608BD00BFDC8F000832
:1026300008B5431C0DD091F900305A1C04D109E0B3
:1026400011F90C3F5A1C05D09842F9D14868411C39
:1026500000D008BD0248FFF7A5FF4FF0FF30F8E7B4
:10266000F08F000870B500F003F90E4C0E4E236891
:1026700073B11D6800F0DAF8281A00280CDC216814
:1026800032688B682360002AF2D048689047EEE7F2
:10269000BDE8704000F0E2B82368BDE870401868FB
:1026A00000F0D2B8440400204804002038B50546A4
:1026B00000F0BCF8044600F0B9F8001BA842FAD3B9
:1026C00038BD00BF4FF47A7303FB00F0FFF7EEBF95
:1026D00008B5072828D8DFE800F00B1219202727B3
:1026E0002704144B1448DA6942F02002DA6108BD6D
:1026F000104B1248DA6942F00102DA6108BD0D4B55
:102700000F48DA6942F00202DA6108BD094B0D4850
:10271000DA6942F00402DA6108BD064B0A48DA6958
:1027200042F00802DA6108BD0848FFF73BFF0020CD
:1027300008BD00BF00380240001402400000024003
:102740000004024000080240000C024018920008F9
:1027500070B5431C86B005460C461CD0C5F303106B
:10276000FFF7B6FF05F00F05012303FA05F50D4B42
:1027700004F00F0253F82230C4F302160322C4F30C
:10278000C31401A901950293039605940492FEF7E0
:10279000B9F806B070BD044804495922FFF7ECFEB1
:1027A000DCE700BFE49100083C920008509200086A
:1027B00038B5431C04460D4618D0C4F30310FFF788
:1027C00087FF04F00F04022D4FEA44044FF0030288
:1027D00098BFA54002FA04F4C26888BF002522EA27
:1027E0000404C460C2681543C56038BD024803498B
:1027F0007E22FFF7C1FEE0E73C92000850920008FD
:10280000074B10B4186810B15DF8044B7047054CC5
:10281000054901220C605DF8044B1A60FFF7C6B948
:1028200084040020000C00404C04002008B5044B38
:102830001B680BB9FFF7E4FF024B586A08BD00BFE5
:1028400084040020000C0040034B1B685863DA68C6
:1028500042F00202DA6070474C040020034B1B6810
:10286000DA6822F00202DA60704700BF4C040020F0
:10287000024B6FF002021B681A6170474C04002083
:10288000094A8368026053B1084B1A68824201D139
:1028900006E01A4653688342FBD143685360704791
:1028A00042681A60704700BFC89200088804002080
:1028B0000C4A836810B50446026053B10A4B1A688B
:1028C000904201D10AE01A4653689C42FBD16368EA
:1028D0005360204600F099F8204610BD42681A6007
:1028E000F7E700BFC892000888040020074B10B427
:1028F00000240273816080E8180019B1044B1A6843
:10290000186042605DF8044B704700BFC892000831
:10291000880400200D4B70B51C6806460D4614B99E
:1029200012E0646884B1A36831462A461846002B39
:10293000F7D001F0FAFF0028F3D1A06801F0EDFF15
:10294000A842EED1204670BD002070BD8804002052
:10295000007B704710B5074B044603F1080234337F
:10296000226040F8043FFFF78BFF2046FDF73EFE54
:10297000204610BDD0920008A0F10400FFF7EABF86
:10298000094B10B503F1080204463433226040F8C5
:10299000043FFFF775FF2046FDF728FE204600F0B4
:1029A00034F8204610BD00BFD0920008A0F104000A
:1029B000FFF7E6BF074B10B50022044640F8043B82
:1029C000FFF794FF044B204603F10802343384E8F8
:1029D0000C0010BDC08D0008D0920008002280E8D5
:1029E00006008261704700BF08B5036801460BB15D
:1029F000984708BD406810B18B690831984708BDF9
:102A000003460846194600F005B808B100F0C8BBF7
:102A10007047000070B5064C06460D4613462CB1B3
:102A200031462A46022002F0DFFF70BD204670BD0D
:102A3000E9590008014B1868704700BFA801002041
:102A400008B5074B044613B1002103F029F8054BE4
:102A50001868836A03B198472046FDF73BFF00BF23
:102A6000A15A00087493000870B505460C4609B9D0
:102A7000002070BD18B183690BB900F085F9214BB6
:102A80009C4201D16C6808E01F4B9C4201D1AC68AC
:102A900003E01E4B9C4208BFEC68B4F90C30002BDD
:102AA000E6D02846214600F03BF8236B06463BB1B2
:102AB0002846216A984736EA200628BF4FF0FF369D
:102AC000A3891B0603D52846216900F091FB616BA1
:102AD00041B104F14403994202D0284600F088FB3A
:102AE00000236363A16C21B1284600F081FB002321
:102AF000A36400F0B3F90023A38100F0B0F93046DD
:102B000070BD00BF10930008309300085093000878
:102B1000024B01461868FFF7A7BF00BFA8010020BD
:102B20008A892DE9F041054610070C4657D44B68B9
:102B3000002B02DC0B6C002B18DDE66AB6B102F448
:102B40008052002392B22F682B600AB1626D10E0B0
:102B5000216A28460123B047411C024609D12B684F
:102B60003BB11D2B01D0162B46D12F600020BDE8B4
:102B7000F081A3895B0705D56368D21A636B0BB13B
:102B8000236CD21AE66A2846216A0023B047461C05
:102B9000A28905D12B681BB11D2B01D0162B19D191
:102BA000002363602369D104236004D5421C01D152
:102BB0002B6803B96065616B2F600029D6D004F1E2
:102BC0004403994202D0284600F012FB00206063C3
:102BD000BDE8F08142F04002A281BDE8F0810E69BB
:102BE000002EC3D00B680E60C6EB030893070CBF22
:102BF0004B6900238B6012E0A3894FF0FF3043F054
:102C00004003A381BDE8F081A76A2846216A3246C5
:102C10004346B8470028EFDD0644C0EB0808B8F18A
:102C2000000FF1DCA2E7000038B50B6905460C4641
:102C3000DBB118B183690BB900F0A6F80C4B9C42CC
:102C400001D16C6808E00B4B9C4201D1AC6803E0F9
:102C5000094B9C4208BFEC68B4F90C302BB12846F4
:102C60002146BDE83840FFF75BBF002038BD00BFFC
:102C7000109300083093000850930008014620B9D3
:102C8000044B0549186800F0F3B9044B1868FFF7C6
:102C9000CBBF00BF74930008292C0008A8010020B6
:102CA00038B50C46054618B183690BB900F06CF8CD
:102CB0000E4B9C4201D16C6808E00D4B9C4201D147
:102CC000AC6803E00B4B9C4208BFEC686368013BB7
:102CD000002B636005DA28462146BDE8384001F044
:102CE0005BBC23685A1C2260187838BD109300081A
:102CF0003093000850930008024B01461868FFF714
:102D0000CFBF00BFA8010020014900F0B1B900BF4A
:102D1000692A0008002310B50446036043608360FD
:102D200081814366C28103614361836119465C30DE
:102D3000082200F054FA054B24626362044BA3623C
:102D4000044BE362044B236310BD00BF7D480008C1
:102D5000A3480008DB480008FF48000870B54B1E78
:102D600068255D430E4605F1740100F085FA0446BE
:102D700040B1002180E842000C30A06005F16802FB
:102D800000F02DFA204670BD836910B5044633BBB0
:102D90008364C3640365124B124A1B6882629842C3
:102DA00004BF0123836100F01FF86060204600F03B
:102DB0001BF8A060204600F017F80421E060002214
:102DC0006068FFF7A7FFA06809210122FFF7A2FFB3
:102DD000E06812210222FFF79DFF0123A36110BDCD
:102DE00074930008092D0008F8B51B4B07461E68B0
:102DF000B36913B93046FFF7C7FF4836B468736844
:102E0000013B04D4B4F90C5075B16834F8E7336869
:102E10002BB938460421FFF7A1FF306008B13668AE
:102E2000ECE70C233B60F8BD4FF6FF73E381012311
:102E3000A38165662560A560656025616561A56102
:102E400004F15C002946082200F0C9F96563A56316
:102E5000A564E5642046F8BD749300087047704788
:102E6000F7B50F46114601AA054603F0C1FC064618
:102E700008B9002029E02846FFF7B6FF04460028DD
:102E8000F7D028463946019A4FF4DB7301F0E2FA95
:102E9000002806DA0025FFF7E1FFA581FFF7DFFF35
:102EA000E7E70B4BE08163620A4BA681A3620A4B02
:102EB0002462E362094B2363F30505D528462146C6
:102EC0000022022300F028F8204603B0F0BD00BF26
:102ED0007D480008A3480008DB480008FF480008B8
:102EE0000A460349034608681946FFF7B9BF00BF01
:102EF000A80100200EB403B5014603AB054853F802
:102F0000042B0068019300F035FA02B05DF804EB81
:102F100003B07047A801002000F000B82DE9F84385
:102F20000C4691461E46054618B183690BB9FFF75A
:102F30002BFF3E4B9C4201D16C6808E03C4B9C420D
:102F400001D1AC6803E03B4B9C4208BFEC68A3890D
:102F500003F48473B3F5847F03D128462146FFF739
:102F600063FED4F82C801D23B8F1000F2BD0012E66
:102F700004D0022E2BD056B3162324E02846214637
:102F8000FFF752FEA28902F4805292B20AB1606D3C
:102F900005E0216A28463346C047411C14D0A38966
:102FA0005A0706D56368C01A636B4BB1236CC01A0D
:102FB00006E01B0704D5236813B122699B1A184445
:102FC0008144002603E02B604FF0FF372BE023699C
:102FD0001BB92846214600F08FF828462146FFF706
:102FE00023FE07460028EFD12846216A4A46334689
:102FF000C0470130E8D0616B41B104F1440399420C
:1030000002D0284600F0F4F800236363236900210E
:103010002360A389616023F40263A38104F15C004F
:10302000082200F0DCF83846BDE8F8831093000869
:1030300030930008509300082DE9F041884600F1D4
:10304000480400268CB1A5686768013F0BD4AB89A2
:10305000012B06D9B5F90E30013302D02846C047FE
:1030600006436835F1E72468ECE73046BDE8F081B7
:103070002DE9F8438046894600F14804002694B1C2
:10308000A5686768013F0CD4AB89012B07D9B5F956
:103090000E30013303D040462946C8470643683501
:1030A000F0E72468EBE73046BDE8F88370B50E4BD7
:1030B0000E4D0024ED1AAD101E46AC4204D056F859
:1030C000242090470134F8E705F056FE084D094BDF
:1030D0000024ED1AAD101E46AC4204D056F8242050
:1030E00090470134F8E770BDE8010020E8010020B6
:1030F000F0010020E8010020F0B58B8991B09E0717
:1031000005460C4625D4B1F90E10002908DAA3892A
:10311000002713F0800F14BF40264FF480660DE0A7
:1031200001AA03F09DFB0028F1DB029F4FF48066AB
:1031300007F47047B7F500514F424F4128463146DA
:1031400000F09AF860B9A3899A051DD443F00203F0
:10315000A38104F14703236023610123636113E02A
:103160000A4BAB62A389206043F08003A3812061F6
:1031700066614FB12846B4F90E1003F09FFE18B1F6
:10318000A38943F00103A38111B0F0BD092D00080C
:10319000024B0146186800F06FB800BFA80100207C
:1031A000024B0146186800F023B800BFA8010020B8
:1031B00010B5C9B202449042034605D01C780130D4
:1031C0008C42F8D1184610BD002010BD10B5002368
:1031D000934203D0CC5CC4540133F9E710BD0244E0
:1031E0000346934202D003F8011BFAE77047000040
:1031F00030B500293CD051F8042C0B1F1D49002A82
:10320000B8BF9B180A680C4612B95A600B6030BDF3
:1032100093420DD219685818904203D15A5811445C
:10322000426819605A60236030BD994203D80A464B
:1032300051680029F9D1146815199D420AD11B68FB
:103240002344D0188842136012D1086803441360E5
:103250004B680CE002D90C23036030BD18681C18C1
:103260008C4203D10C68496820441860596053604F
:1032700030BD00BF9004002070B5CD1C25F00305C3
:1032800008350C2D38BF0C25002D064603DA0C231B
:103290003360002070BD8D42F9D3204B1C68184666
:1032A0002146A1B10B685B1B0ED40B2B03D90B601D
:1032B000CC18CD501FE08C4202D1626802601AE047
:1032C0004B6863600C4616E00C464968E9E7144C0D
:1032D00023681BB9304601F0ADF92060294630461D
:1032E00001F0A8F9431C0146D1D0C41C24F003040A
:1032F00084420AD1256004F10B00231D20F0070051
:10330000C31A09D05A42E25070BD3046611A01F02A
:1033100091F90130EED1BAE770BD00BF90040020F2
:103320008C040020936810B5013B002B936005DAF4
:103330009469A34208DBCBB20A2B05D01368581C52
:1033400010601970C8B210BDBDE8104002F078BA24
:10335000F8B505460E461446D718BC4208D0284694
:1033600014F8011B3246FFF7DDFF431CF5D100E0E6
:103370000020F8BD2DE9F0439DB00D46174603939C
:10338000064618B183690BB9FFF7FEFC734B9D42EB
:1033900001D1756808E0724B9D4201D1B56803E028
:1033A000704B9D4208BFF568AB8918070AD52B6999
:1033B00043B10023099320238DF8293030238DF861
:1033C0002A3038E03046294602F0A0FA0028F0D032
:1033D0004FF0FF30BEE0039A111D12680391002ADE
:1033E00070DB0792013423782E2B7DD05E4F21783D
:1033F00038460322FFF7DCFE30B1C71B4020B8403F
:10340000049B013403430493217858480622671C27
:103410008DF82810FFF7CCFE002800F08980544B6F
:10342000002B7CD1039B073323F00703083303935E
:10343000099B434409933B461C4613F8012B1AB9D8
:10344000B4EB07090ED002E0252AF5D1F8E73046A3
:1034500029463A464B46FFF77BFF013075D0099B62
:103460004B4409932378002B6FD000234FF0FF3299
:1034700004930793059206938DF853301A9304F141
:1034800001093C4F4C46384621780522FFF790FE53
:1034900009F10109049B28B1C71B0120B84003436F
:1034A0000493EEE7D90644BF20228DF853201A0773
:1034B00044BF2B228DF8532022782A2A8BD0079BD9
:1034C000214605E0524243F002030792049389E744
:1034D0000C4622780131303A092A03D80A2000FB31
:1034E0000323F5E707937EE763782A2B09D1039B33
:1034F00002341A1D1B680392002BB8BF4FF0FF3334
:103500000BE0611C00230C4622780131303A092A75
:1035100003D80A2000FB0323F5E7059366E703AB16
:103520000093304604A92A46134B00F0C9F807E07F
:1035300003AB0093304604A92A460F4B00F040FB32
:10354000B0F1FF3F80467FF473AFAB895B063FF578
:103550003FAF09981DB0BDE8F08300BF109300088D
:1035600030930008509300087E930008829300086F
:10357000C1360008789300085133000830B513466F
:10358000044A05460C46106829462246BDE83040EC
:10359000FFF7F0BEA80100202DE9D04F88B01499A4
:1035A0001E46002E129B21F0200B92463246B6BFDB
:1035B0002D22002206F10046BBF1460F109F139CFE
:1035C0001A7004D0BBF1450F03D1013701E003238A
:1035D00000E002238DE8880006AB039307AB049359
:1035E00002945246334602F05FFBBBF1470F804620
:1035F00002D1119BDB0725D5BBF1460F08EB07096C
:103600000FD198F80030302B09D1504631460022B6
:10361000002304F0F3FF10B9C7F101072760236806
:103620009944504631460022002304F0E7FF08B1D8
:10363000CDF81C90079B4B4504D25A1C07923022B0
:103640001A70F7E7079B4046C8EB0302159B1A6008
:1036500008B0BDE8D08F73B50346002903F8022BEC
:1036600003DA49421A462D2401E01A462B2409297F
:1036700044701BDD0DF106040A2691FBF6F506FBEE
:103680001511092D01F13001234604F801192946CD
:10369000F2DC05F1300103F8011D0DF107018B4249
:1036A0000AD213F8011B02F8011BF6E730241A4670
:1036B000214402F8024B5970101A02B070BD00008C
:1036C0002DE9F04F8FB00C4616461F46DDF860908E
:1036D000054603F003FCD0F800A0504601F01DF9A8
:1036E00000230C93D9F800300990073323F0070327
:1036F00003F10802D3E9000194F81880C9F800200A
:10370000C4E9120100F074FF0128D4E9120117D1B5
:103710000022002304F07CFF10B12D2384F84330F5
:10372000904B914AB8F1470F8CBF914699460323BD
:103730002361236823F0040323604FF0000B86E02D
:1037400000F056FF236848B9884A8949B8F1470F05
:103750008CBF8946914603222261EBE7626828F01C
:10376000200B511C01D1062204E0BBF1470F02D10E
:103770000AB901226260606843F480618DE8030049
:10378000D4E912230DF12B0002900BA803900CA892
:103790000590002021600690CDF810802846FFF7A4
:1037A000FBFEBBF1470F81460B9909D1C81C02DB18
:1037B0006368994230DDA8F102085FFA88F802E0F8
:1037C000B8F1650F12D80139424604F150000B914F
:1037D000FFF741FF0C9A83468318012A236102DC1C
:1037E0002268D2072DD5013323612AE0B8F1660F94
:1037F00014D10029636807DD216113B92268D0075D
:103800001CD501330B4418E013B92268D20701D547
:10381000023312E0012310E04FF067080C9A914246
:1038200005DB23682161D80708D54B1C05E000297A
:10383000D4BFC1F10203012313442361A1654FF0FA
:10384000000B9DF82B3013B12D2384F843300097E3
:10385000284621460DAA334600F040F9013002D136
:103860004FF0FF3036E123685A0504D4284631462C
:103870004A46236908E1B8F1650F40F2CB80D4E9EC
:1038800012010022002304F0B9FE00282AD02846A5
:103890003146384A0123B8470130E1D00C9B0B9ADE
:1038A0009A4207DB2368D80704D423689B0700F1FA
:1038B000F880FDE0284631465246099BB847013062
:1038C000CED04FF000080C9B013B9845EDDA28461E
:1038D000314604F11A020123B8470130C0D008F183
:1038E0000108F0E70B9B002B28DC28463146214AD3
:1038F0000123B8470130B3D00B9B23B90C9B13B9FC
:103900002368D907D1D5284631465246099BB84786
:103910000130A5D04FF000080B9B28465B4298452C
:10392000314608DA04F11A020123B847013097D072
:1039300008F10108F0E74A460C9BA5E0A36D0C9A3C
:103940009A42B4BF93469B46BBF1000F02DC4FF096
:1039500000081CE0284631464A465B46B84701301D
:10396000F5D17DE7899300088D93000891930008B5
:1039700095930008E29300082846314604F11A02A4
:103980000123B84701303FF46BAF08F10108A36D84
:103990002BEAEB729A1A9045EEDB09EB03080B9ABF
:1039A0000C9B9A420FDB2368DA070CD40C9B0B9A12
:1039B0009944C8EB09099B1A9945A8BF9946B9F1E2
:1039C000000F08DC0FE0284631465246099BB847F5
:1039D0000130EBD144E72846314642464B46B847D2
:1039E00001303FF43DAF4FF000080AE02846314671
:1039F00004F11A020123B84701303FF431AF08F156
:103A000001080B9B0C9A29EAE971D31A5B1A9845B5
:103A1000ECDB4AE70C9A012A01DCDB0739D52846A2
:103A200031464A460123B84701303FF419AF2846D2
:103A300031465246099BB84701303FF411AFD4E9F3
:103A400012010022002304F0D9FD10B14FF000084C
:103A500011E00C9B2846314609F10102013B1CE0B4
:103A60002846314604F11A020123B84701303FF4D9
:103A7000F7AE08F101080C9B013B9845F0DB2846A6
:103A8000314604F150025B46B84701307FF40DAF78
:103A9000E6E6284631464A460123B8470130EED1D2
:103AA000DEE64FF00008E2680D9BD31A984505DB6F
:103AB000E0680D9B9842B8BF18460BE02846314697
:103AC00004F119020123B84701303FF4C9AE08F1EF
:103AD0000108E8E70FB0BDE8F08F00BF2DE9F8431B
:103AE00015461F468A680B6906469A42A8BF1346C8
:103AF0002B6091F843200C46DDF820800AB1013399
:103B00002B602368990602D52B6802332B6023684B
:103B100013F006091DD094F843302268003318BF13
:103B2000012392061FD5E118302081F843005A1C6A
:103B300094F845102244023382F8431013E03046D3
:103B4000394604F119020123C047013007D009F1B9
:103B50000109E2682B68D31A9945F0DBDBE74FF0E7
:103B6000FF30BDE8F8833046394604F14302C047D0
:103B70000130F4D023682A6803F00603E168042BBF
:103B800008BFC2EB01052369A2680CBF25EAE575F1
:103B900000259A42C4BFC3EB0203ED184FF00009A1
:103BA000A9450ADA3046394604F11A020123C04712
:103BB0000130D4D009F10109F2E70020BDE8F88313
:103BC0002DE9FF470E7E80466E2E0C4691469A46A2
:103BD0000C9D01F1430000F0A58011D8632E22D086
:103BE00009D8002E00F0B280582E40F0C28081F833
:103BF00045607C4A4FE0642E1ED0692E1CD0B8E090
:103C0000732E00F0A78009D86F2E2BD0702E40F0B5
:103C1000B0800B6843F020030B6038E0752E21D094
:103C2000782E34D0A5E02B6801F142071A1D1B68DD
:103C30002A6081F84230A0E022682B6812F0800FE1
:103C400003D01A1D2A601D6805E05706F9D51A1D14
:103C50002A60B3F90050002D39DA2D236D4284F823
:103C6000433034E022682B6812F0800F03D01A1D15
:103C70002A601D6804E05606F9D51A1D2A601D88C1
:103C8000237E584A6F2B14BF0A2308231BE0782396
:103C9000554A84F845302368296813F0800F01F1F4
:103CA00004062E6001D00D6802E05D06FBD50D888C
:103CB000D90744BF43F0200323601DB9236823F0D4
:103CC000200323601023002184F8431001E0454ABB
:103CD0000A236668002EA66003DB216821F0040138
:103CE000216005B96EB104F14201B5FBF3F603FBA7
:103CF0001655555D0F4601F801593546002EF4D191
:103D000000E00746082B0AD12368DA0707D5626866
:103D100023699A4203DC302307F8013C013FC01BB2
:103D200020612FE009682B6811F0800F626903D0D1
:103D3000191D29601B6808E011F0400F03F1040110
:103D400029601B6801D01A8000E01A6000232361FB
:103D5000074617E02B681A1D2A601F68384600F0D6
:103D6000DCFD63682061984288BF2361236963603A
:103D700005E004F1420784F8426001232361002337
:103D800084F84330CDF800A04046214603AA4B46B4
:103D9000FFF7A4FE013002D14FF0FF301FE0404694
:103DA00049463A462369D0470130F5D023689B073E
:103DB00005D4E068039B9842B8BF18460FE0002581
:103DC000E268039BD31A9D42F3DA4046494604F168
:103DD00019020123D0470130DED00135F0E704B0ED
:103DE000BDE8F08799930008AA9300082DE9F04FE9
:103DF00099468B6816465A1EB2F5AE7F87B00746C5
:103E00000C4607D96FF4AE7203EB020C40F25D135F
:103E10008B6001E04FF0000C2368A04643F4F06390
:103E2000002548F81C3BC3462A4605950495AA463A
:103E30000395A168002900F0D98033681B78492BCD
:103E40006CD016D8392B0DD8312B3ED22D2B44D027
:103E500002D82B2B41D0C9E02E2B00F08180302BD3
:103E600022D0C3E0452B00F08480462B6CD0412B40
:103E70000BE0652B7DD00AD8542B69D002D84E2B8D
:103E800033D0B3E0592B67D0612B43D0AEE06E2B1B
:103E90002BD004D8662B57D0692B3FD0A6E0742BCB
:103EA00056D0792B58D0A1E0206810F4807F0CD038
:103EB00020F0800020600AF1010ABCF1000F78D0E8
:103EC00001310CF1FF3CA16073E05119002940F071
:103ED0008D80216821F4C07105E02168080640F159
:103EE000858021F0800121605FE06AB9BAF1000F9E
:103EF0000CD1216801F4E060B0F5E06F06D121F447
:103F0000F0612160012250E0022A4DD0012D18D02D
:103F1000042D15E0012A69D1022246E06DB9BAF1FB
:103F2000000F66D1216801F4E060B0F5E06F64D164
:103F300021F4F0612160012537E0032D01D0052D2A
:103F400054D10135EDB230E0022D4FD103252CE0E4
:103F5000062D4BD1072528E0072D47D1082524E061
:103F60002168880542D521F420712160CDF80CA08C
:103F70001BE0216801F4A060B0F5806F04D0480513
:103F800034D5BAF1000F38D0880505D40398CDF8A0
:103F900014B0C0EB0A00049021F4F06141F4C07148
:103FA00021604FF0000A00E003228BF800300BF193
:103FB000010BA368013BA36023690133236173688C
:103FC000013B002B736003DD33680133336030E75E
:103FD0000292CDF804C0D4F8803138463146984773
:103FE000029ADDF804C000283FF423AFBAF1000FB5
:103FF00003D0236823F480732360013A012A11D887
:10400000C3455A460CD9D4F87C3112F8011C384605
:104010003246984723690BF1FF3B013B2361EFE7F1
:104020000125BBE06B1E062B2DD8022D1BD9DC46CB
:10403000CBEB0502624402F0FF02032A0ED91CF802
:10404000011D3246CDF804C03846D4F87C3198477B
:104050002269DDF804C0013A2261E9E7033DEDB2CF
:10406000C5EB0B0B0FE0C3455A46D9D9D4F87C31C8
:1040700012F8011C38463246984723690BF1FF3B82
:10408000013B2361EFE72368DA052FD55B050FD5E8
:10409000C3455A46C4D9D4F87C3112F8011C3846BD
:1040A0003246984723690BF1FF3B013B2361EFE761
:1040B0001BF8011C2369652903F1FF330BF1FF3560
:1040C00023610DD045290BD0D4F87C3138463246D7
:1040D000984723691BF8021C013BABF102052361E1
:1040E000D4F87C31384632469847AB46256815F0FF
:1040F000100552D18BF80050236803F4C063B3F568
:10410000806F05D10398C0EB0A035A426BB916E0E1
:10411000049AA2B1059B2A46591C38460A2301F08D
:104120005BFA049BDDF814B0C21A04F26F139B45CE
:1041300028BF04F5B77B58461A4900F051FB3846B2
:104140000022414600F03CFC2268064612F0020FB5
:104150000F46D9F8003003D01A1DC9F8002006E038
:1041600012F0040F03F10402C9F8002003D01B6809
:10417000C3E900670DE0D3F8008000F039FA10B908
:1041800000F02AFB03E03046394604F0B1FAC8F8E3
:104190000000E3680133E36000E00025284607B033
:1041A000BDE8F08FBB9300082DE9F04115468A6801
:1041B00080460C4632B98A69002A14BF4FF0FF329C
:1041C00001228A602268D10603D41A68111D196081
:1041D00017680026A069E0B923680136DA0604D41E
:1041E0002B6801371B7807F8013C2A686B6801329D
:1041F0002A60A268013B013A6B60A26012B3002BF7
:10420000E8DCD4F880314046294698470028E1D0C0
:1042100018E0012807D12A6811786269525C002AE7
:10422000DAD1EEB10EE0022801D04EB10AE02A68E0
:104230000C49127809680A4452781307CCD5F4E780
:1042400001280DD0236813F0100305D1E268013274
:10425000E260A26902B13B70236900201E4426611E
:10426000BDE8F081AC0100202DE9F04F89B00C468B
:10427000984605A9734B02918146164693E80700BC
:10428000029B83E80700A3696F4A7049032B08BFAC
:104290001146A36803915A1EB2F5AE7F07D96FF499
:1042A000AE7503EB050A40F25D13A36001E04FF029
:1042B000000A236804F11C0743F450632360BB46E3
:1042C0000023326805A951F82300117802220193D6
:1042D000FEF76EFF019B002835D0012B0BD16268E1
:1042E0002AB908226260226842F4007222602268C1
:1042F00022F4A0620BE0022B0AD1226802F4C06112
:10430000B1F5007F1FD11021616042F480722260FC
:10431000A268511EA160B2B132680BF10105511CB7
:10432000316012788BF800207268013A002A7260BE
:1043300008DC0193D4F88021484631469047019B20
:10434000002841D1AB460133032BBAD163680BB9C6
:104350000A23636063683E496069C91A00F07AF90C
:104360005D464FF0000BA368002B2FD032686069C8
:104370001178405C50B3302921680BD1080509D56C
:104380000BF1010BBAF1000F0BD001330AF1FF3A28
:10439000A36006E021F4106121601378013505F86F
:1043A000013C7368013B002B736003DD336801330C
:1043B000336005E0D4F8803148463146984728B943
:1043C000A368013BA360CEE74FF0000B2368D9053B
:1043D0000DD5BD4209D915F8011CD4F87C314846E9
:1043E0003246984705F1FF3A5546BD4226D022682D
:1043F00012F010021BD12A70636848463946039EAA
:10440000B0472268D8F8003012F0200F07D1D20749
:1044100005D51A1DC8F800201B68188004E01A1D75
:10442000C8F800201B681860E3680133E360236963
:10443000ED1BAB445B442361002000E0012009B088
:10444000BDE8F08FC0930008D9550008DD5600087C
:10445000DC93000838B5074C05460020206008466C
:1044600011461A46FCF7FAF8431C02D1236803B13F
:104470002B6038BDB4050020838903F00903092BA4
:1044800001D1FEF7FBBB002070470000F8B50C46D9
:10449000054618B183690BB9FEF776FC394B9C428F
:1044A00001D16C6808E0384B9C4201D1AC6803E054
:1044B000364B9C4208BFEC68A2890023636093B22C
:1044C0009E065AD458071AD4D90605D4092342F0B7
:1044D00040022B60A28150E01A070BD528462146E6
:1044E000FEF7A2FB002848D1A389A06023F00803AF
:1044F000A381A061A38943F00403A38110E0616B51
:1045000071B104F14403994202D02846FEF770FECF
:10451000236C00206063636013B1E36B2360F8BD1C
:1045200023691BB928462146FEF7E6FDA789BEB2DE
:10453000B3070FD00123A381154B1649186806F065
:104540000906FEF779FD092EA78103D128462146E9
:10455000FEF7E6FA2269666A22602846216A6369E4
:10456000B047002860600BDCA38917BF002243F02E
:10457000200343F040036260A3814FF0FF30F8BD99
:104580000020F8BD109300083093000850930008F5
:10459000749300087944000838B50C46054618B1F4
:1045A00083690BB9FEF7F0FB0E4B9C4201D16C689E
:1045B00008E00D4B9C4201D1AC6803E00B4B9C42E0
:1045C00008BFEC6828462146FFF760FF38B96368EA
:1045D000013B636023685A1C2260187838BD4FF095
:1045E000FF3038BD10930008309300085093000846
:1045F00031F0004310B500D178B10C4AA3F5801416
:1046000094420CD9B3F5801F0BD3094A93420AD1C7
:10461000D0F1010038BF002010BD022010BD0420E1
:1046200010BD032010BD002010BD00BFFFFFDF7FC5
:104630000000F07F38B5064C00230546084623608D
:10464000FCF734F9431C02D1236803B12B6038BD59
:10465000B4050020F0B50B785E2B02D04C1C002175
:1046600002E08C1C4B780121002281540132B2F50A
:10467000807FFAD10BB9651E1BE0C1F10107FEB2C4
:10468000C654621C12F8011C551E2D29144604D074
:104690005D290DD069B10B46F1E715785D2DFAD093
:1046A0009D42F8DB0133AB42C654FBDB0232E9E743
:1046B00015462846F0BD00290CBF022200224FF407
:1046C000806300F001B800002DE9F0411E463D4B2B
:1046D00004461D680F46904625B1AB6913B92846BC
:1046E000FEF752FB384B9C4201D16C6808E0374B17
:1046F0009C4201D1AC6803E0354B9C4208BFEC689A
:10470000B8F1020F59D8002E57DB28462146FEF794
:104710008BFA00236360A361A3891B0603D5284697
:104720002169FEF765FDA389B8F1020F23F0830329
:10473000A38112D037BB002E08BF4FF480663046ED
:10474000FEF726FD0746C8B94FF48060FEF720FD4E
:10475000074688B94FF0FF3000E00020A38943F0FE
:104760000203A3810023A36004F1470323602361B4
:1047700001236361BDE8F0814FF48066A38943F0B3
:104780008003A381B8F1010F05D1A38943F0010390
:10479000A3817342A3610F4BAB62A389276003F02F
:1047A000080080B22761666148B113F0030F18BF9B
:1047B0000026A6600020BDE8F0814FF0FF30BDE884
:1047C000F08100BFA801002010930008309300087A
:1047D00050930008092D0008004870470000C07F72
:1047E0000EB400B54FF402719CB0ADF814106FF028
:1047F0000041049107914FF6FF711DABADF8161003
:10480000084953F8042B02900690086802A9019306
:1048100003F024F8029B00221A701CB05DF804EB30
:1048200003B07047A80100200EB430B59CB01FAC97
:104830004FF4017254F8045BADF814200290069016
:1048400000F06BF80B4B03900B9300230F93149322
:104850004FF6FF73ADF81630074B079002A91868A2
:104860002A462346019403F03FF91CB0BDE83040CE
:1048700003B070479F480008A801002010B50C46FF
:10488000B1F90E1003F07EFA002803DB636D0344D8
:10489000636510BDA38923F48053A38110BD00205C
:1048A00070472DE9F0411D468B890746DB050C4614
:1048B000164605D5B1F90E100022022302F012FBB4
:1048C000A389384623F48053A381B4F90E103246ED
:1048D0002B46BDE8F04101F007B810B50C46B1F920
:1048E0000E1002F0FFFA431CA38903D123F4805376
:1048F000A38110BD43F48053A381606510BDB1F95D
:104900000E1001F031B910F8012B11F8013B012A0A
:1049100028BF9A42F7D0D01A7047034613F8012BEC
:10492000002AFBD1181A0138704770B58AB10B46BE
:1049300005461C7810F8016B0131B44201D1012AFF
:1049400003D128781B78C01A70BD013A002CEED133
:10495000F7E7104670BD30B5026811F8015B541CD2
:1049600055B153782246A3F14104192C98BF203346
:10497000AB42F2D0002030BD0460012030BD2DE9F3
:10498000F0410D46904602F0AFFD06460F46B8F1E5
:10499000000F0FD0C5F30A53C3F16B03002B09DDE1
:1049A0001B0503F17F5404F54013002203F0BEFB06
:1049B000BDE8F08130463946BDE8F08100000000D6
:1049C0002DE9F04F002399B0814603911192149381
:1049D0004FF0000A4FF0000B1391139A13780D2B30
:1049E00005D8092B14D2002B00F0AA8113E02B2B41
:1049F00007D02D2B02D0202B0DD109E001260E96D9
:104A000001E000270E97531C139353782BB997E1BD
:104A100001321392E1E700260E96139C2378302B87
:104A20005AD16378582B01D0782B49D10E9F14AB03
:104A300000930197484613A9994A15AB01F06CFF02
:104A400010F00706054600F0A185062E02D10134BC
:104A5000139477E1149A3AB116A8352102F031FE89
:104A60004846149902F0A0FA159A062E21D8DFE8DC
:104A700006F0040D08171C0D04004FF0000BDA4679
:104A800017E0DDF858A0DDF85CB012E0179B02F2E9
:104A9000334223F48013DDF858A043EA025B08E0B8
:104AA000DFF800B24FF0000A03E06FF0004B4FF068
:104AB000FF3A2B0740F16A854BF0004B00F066BDD2
:104AC000139B5A1C13925B78302BF9D0002B00F00B
:104AD0005D850123079301E000260796139F4FF0A1
:104AE00000080997CDF818804446139E3578A5F143
:104AF0003003DAB2092A10D8082CD8BF069F4FF02D
:104B00000A02D8BF02FB073706F10106D4BF069799
:104B100002FB083801341396E7E7484602F0DEF955
:104B20000768484602F0DAF90068FFF7F6FE3946F2
:104B300002463046FFF7F9FE064628B100232A4612
:104B4000194625469C465DE04846139D02F0C6F98D
:104B50000068FFF7E2FE2B1813932A5C002C45D166
:104B60002346302A05D1139A0133511C13915278F0
:104B7000F7E7A2F13101082940D8139E1946002316
:104B800009961D46303A03F1010029D001446E1CFC
:104B9000771B874210DA771E082F06DC069F4FF03E
:104BA0000A0C0CFB07F7069704E0102EDCBF0A275F
:104BB00007FB08F80136EBE7002BACBFEB182B1C0A
:104BC000082B03F1010505DC069E0A2303FB0626DC
:104BD000069604E0102DDCBF0A2303FB0828002002
:104BE000139B5A1C13925A78034602E0254633461B
:104BF0003146A2F130000928C4D901E00025294638
:104C00004FF0010C22F0200045284FD125B91BB9E7
:104C1000079F002F00F09480139E721C13927278ED
:104C200003962B2A04D02D2A05D000200F9008E0EF
:104C300000270F9701E001220F92039EB21C1392EE
:104C4000B278A2F13006092E2ED8302A04D1139A58
:104C5000561C13965278F8E7A2F13106082E25D893
:104C6000139FA2F130060897139A501C13905278A4
:104C70000A90A2F13000092804D80A2707FB06266B
:104C8000303EF1E70A9F08983F1A082F44F61F6745
:104C900002DCBE42B8BF37460F9840B17F4206E003
:104CA000109400080000F07F039E13960027002D4B
:104CB0004CD1002B40F06A84079F002F40F066849F
:104CC000BCF1000F3CD14E2A1BD002DC492A05D092
:104CD00036E0692A02D06E2A13D031E013A8A84921
:104CE000FFF739FE60B3139B13A8013BA54913934B
:104CF000FFF731FE10B9139B01331393DFF8A0B215
:104D00001AE013A8A049FFF726FEC8B1139B1B7831
:104D1000282B0FD113A89D4916AA02F03FF80528A9
:104D200008D1179BDDF858A043F0FF4343F4E00B94
:104D300000F02CBCDFF86CB24FF0000A00F026BC8B
:104D4000039B139300260E9600F020BC102DB4BFD9
:104D5000AC464FF0100C791A0698CDF808C00791B0
:104D600003F06EF9DDF808C0002C08BF2C46BCF13A
:104D7000090F82468B4615DD854B03EBCC0353E9C7
:104D8000122303F0D3F9064640460F4603F058F9C4
:104D900002460B463046394603F016F8DDF808C0E7
:104DA00082468B460F2D37DC079F002F00F0EE83E5
:104DB00024DD162F08DC764F079E524607EBC60708
:104DC000D7E900015B4614E0079FC5F125039F4228
:104DD00022DC6F4CC5F10F0504EBC5037D1BD3E945
:104DE000000152465B4604EBC50403F09FF9D4E989
:104DF000002303F09BF982468B46C7E3079E16F11A
:104E0000160F09DB624F5046A7EBC6075946D7E994
:104E1000002303F0B5FAEEE7079FCCEB0508B84492
:104E2000B8F1000F5DDD18F00F030AD0584A02EB0D
:104E3000C303D3E9000152465B4603F077F982468B
:104E40008B4638F00F0800F0C080B8F59A7F0FDD70
:104E50000024254609940694099E2223C9F80030AF
:104E6000DFF83CB14FF0000A002E40F07B838DE369
:104E70004FEA2818504659460026B8F1010F0DDDBB
:104E800018F0010F06D0434B03EBC603D3E9002310
:104E900003F04CF901364FEA6808EEE73D4B8246D5
:104EA000A1F1547B03EBC60652465B46D6E90001EE
:104EB00003F03CF921F000438B461B0D36491B05DE
:104EC0008B428246C4D8A1F580118B4206D90027B7
:104ED000DFF8D4B04FF0FF3A039778E00BF1547B42
:104EE00073E072D0C8F1000818F00F030AD0284A06
:104EF000504602EBC3035946D3E9002303F040FABE
:104F000082468B465FEA28185FD0B8F11F0F04DD98
:104F1000002425460994069423E118F0100F14BFCD
:104F20006A2700271D4E039750465946B8F1000FD7
:104F30000ADD18F0010F03D0D6E9002303F0F6F8DC
:104F40004FEA68080836F1E7039E82468B469EB317
:104F5000C1F30A53C3F16B03002B2DDD1F2B25DD9D
:104F6000342B4FF0000A02DD4FF05C7B24E0203B45
:104F70004FF0FF3101FA03F303EA0B0B1CE000BF13
:104F80008E9300083C95000896930008249400082E
:104F900050950008189600080000A07CE8930008CF
:104FA0000000F07F0000F8FFFFFFEF7F4FF0FF32BF
:104FB00002FA03F303EA000A50465946002200238E
:104FC00003F01CFB0028A3D101E000260396069FF6
:104FD00048460097099922462B4602F036F8099078
:104FE00000283FF435AF079E0024734203EAE673BE
:104FF0000F932546099F4846796801F0A0FF069067
:1050000000283FF429AF3A6907F10C0102329200FF
:105010000C30FEF7DBF815AB009316AB0193484656
:1050200052465B46CDE90AAB02F0D3FA1490002851
:105030003FF412AF4846012102F096F805460028D9
:105040003FF40AAF079B23EAE3730893159B002BF9
:10505000C0F293800F9E089A1E44039F1698DB1B94
:1050600019186FF47F739942C0F1360080F2918075
:105070005B1A1F2BC3EB00004FF0010800F3818087
:1050800008FA03F80023CDF840800493DDF80C8083
:10509000131837189844B742B4BF3B4633464345CC
:1050A000A8BF4346002B03DDFF1AC3EB0808F61A1E
:1050B0000F98002872D1002F00F38A80089B002BE4
:1050C00040F09080B8F1000F00F39680002E00F3BE
:1050D0009D8048461499069A02F0A6F904460028D5
:1050E0003FF4BAAEC6684FF00008C0F80C802946FD
:1050F000089602F07CF9404580F29680002E40F040
:105100001E82BAF1000F40F01A82CBF31303002B7A
:1051100040F015822BF000431B0D1B05B3F1D66F39
:1051200040F20D826369002B7AD021460122484665
:1051300002F00AF92946044602F059F9002840F322
:10514000FE812BF00043039F1B0D1B05002F00F079
:105150009B80B3F1D66F00F29780B3F15C7F00F2D1
:10516000F081099F22234FF0000A4FF0000BC9F88D
:105170000030002F40F0F68108E2089EF21A0F9EE0
:105180006BE7A04FCDF840807F1A08FA07F7049725
:105190007CE7002701230497109377E729464846C8
:1051A0000F9A02F083F8054600283FF455AE4846B2
:1051B0002946149A01F0E1FF034600283FF44CAE63
:1051C00048461499029301F0EFFE029B149372E794
:1051D000484614993A4602F0B7F8149000287FF434
:1051E0006DAF39E648460699089A02F05FF80690D6
:1051F00000287FF467AF2FE648460699424602F042
:10520000A3F8069000287FF461AF25E629464846BA
:10521000324602F099F8054600287FF45AAF1BE6A3
:105220002369012B81DC8AE163D1089FCBF313034F
:105230002FB375495A468B422FD1039E51466EB10A
:10524000724B0BEA0303B3F1D46F07D81B0DC3F104
:105250006B034FF0FF3000FA03F301E04FF0FF3330
:1052600099421AD16A4B9A4202D101313FF4F4AD0E
:10527000664B4FF0000A134003F5801B5FE163B9F2
:10528000BAF1000F09D15CE7A3F580136FEA135B55
:105290006FEA0B5B4FF0FF3A51E1049B13B113EA45
:1052A0000B0F02E0109E16EA0A0F00F04881089FDB
:1052B00050465946039A57B1FFF761FB02460B4629
:1052C000DDE90A0102F080FD82468B4637E1FFF7F7
:1052D00056FB02460B46DDE90A0102F073FD00228F
:1052E000002382468B4603F089F900287FF439AF0A
:1052F00025E12046294602F0BEF900224FF0804306
:1053000006460F4603F08EF988B3089810B10026C0
:10531000404F0FE0BAF1000F03D1CBF313033BB9B9
:105320000DE0BAF1010F03D1BBF1000F3FF419AF4B
:10533000394F00264FF0000CDFF8D88027E03046C8
:1053400039460022334B03F063F940B93046394601
:105350000022324B02F0EAFE8446884603E0DDF884
:1053600020C0DFF8B880664608F100470FE03046FD
:1053700039460022294B02F0D9FE089E8446884611
:1053800016B901F1004300E00B4666461F462BF0BC
:105390000040000D224B00059842049044D1DDE905
:1053A0000A23ABF1547B50465946CDF808C0CDE9ED
:1053B0000C2302F099F802460B463046394602F0BB
:1053C000B5FE02460B465046594602F0FDFC21F060
:1053D00000431B0D134A1B0593428246DDF808C0AB
:1053E0000CD90B4B0D9E9E4203D10C9F01373FF40D
:1053F00033ADDFF81CB04FF0FF3A8FE001F1547B82
:1054000051E000BFE3FBFFFFFFFF0F000000F07F54
:10541000FFFFEF7F0000F03F0000F0BF0000E03F23
:105420000000E07FFFFF9F7C039830B30499B1F147
:10543000D46F22D85EA3D3E9002360464146CDF85D
:1054400008C003F0EFF8DDF808C090B160464146AF
:1054500003F02EF9002808BF012002F0F1FD089E9C
:105460008446884616B901F1004300E00B466646C3
:105470001F46049807F1D6631F1ADDE90A01CDF82B
:1054800008C002F031F802460B463046394602F0B9
:105490004DFE02460B46DDE90A0102F095FCDDF8FF
:1054A00008C082468B46039F002F37D12BF0004364
:1054B0001B0D049F1B059F4230D160464146CDF82D
:1054C00008C003F0CDF802F0CBFDDDF808C00246BD
:1054D0000B466046414602F075FC089FCDE9040189
:1054E0002FB9BAF1000F02D1CBF3130686B1DDE973
:1054F000040131A3D3E9002303F08AF8002831D155
:10550000DDE904012EA3D3E9002303F09FF804E0B2
:105510002DA3D3E9002303F07BF818BB4846149968
:1055200001F042FD4846069901F03EFD48462946F5
:1055300001F03AFD4846214601F036FD5AE5039E4A
:1055400086B1234F00200C900D9750465946DDE957
:105550000C2302F0EBFD82468B4619B910B92223C9
:10556000C9F800304846149901F01EFD48460699D6
:1055700001F01AFD4846294601F016FD48460999F2
:1055800001F012FD4846214601F00EFD119E0EB1BC
:10559000139B33600E9F524617B10BF1004300E09E
:1055A0005B461046194619B0BDE8F08FAFF3008096
:1055B0000000C0FFFFFFDF419535A094FFFFDF3FF4
:1055C00035E5AF350000E03F9535A094FFFFCF3FB4
:1055D00000005039AFF3008084463F482DE9F04F7A
:1055E000D0F800800E46344614F8015B08EB050045
:1055F000407800F0080000F0FF0708B12646F2E707
:105600002D2D03D1B41C7578012703E02B2D04BF89
:105610007578B41C33F010000DD1302D08D12078EE
:1056200000F0DF00582851D165781023023402E0E1
:10563000002B08BF0A23002F0CBF6FF0004A4FF069
:10564000004ABAFBF3F903FB19AA0026304608EB1F
:10565000050B9BF801B01BF0040F01D0303D0BE0AF
:105660001BF0030B1BD0BBF1010F14BF4FF0570B06
:105670004FF0370BCBEB05059D4210DAB6F1FF3F3B
:105680000AD0484506D801D1554503DC03FB00503C
:10569000012601E04FF0FF3614F8015BD7E7731CD9
:1056A0000CD1002F4FF022030CBF6FF000404FF0E1
:1056B0000040CCF800302AB9BDE8F08F07B1404275
:1056C00042B106B1611E1160BDE8F08F002B08BF2A
:1056D0000823B0E7BDE8F08FAC01002084463A48CB
:1056E0002DE9F04FD0F800800E46344614F8015BE7
:1056F00008EB0500407800F0080000F0FF0708B153
:105700002646F2E72D2D03D1B41C7578012703E05E
:105710002B2D04BF7578B41C33F010000DD1302D43
:1057200008D1207800F0DF00582847D16578102391
:10573000023402E0002B08BF0A234FF0FF39B9FB07
:10574000F3F903FB09FA00266FEA0A0A304608EB70
:10575000050B9BF801B01BF0040F01D0303D0BE0AE
:105760001BF0030B1AD0BBF1010F14BF4FF0570B06
:105770004FF0370BCBEB05059D420FDA002E08DB0F
:10578000484506D801D1554503DC03FB00500126EE
:1057900001E04FF0FF3614F8015BD8E7002E05DA80
:1057A0002223CCF800304FF0FF3001E007B1404237
:1057B00042B106B1611E1160BDE8F08F002B08BF39
:1057C0000823BAE7BDE8F08FAC0100202DE9F041D5
:1057D0000C46496B04F1440399421AD14FF480619D
:1057E000FDF74AFD18B94FF0FF30BDE8F0814FF4E6
:1057F0008063A36394F84630606380F8FF3394F8C5
:10580000453000F2FD30437094F84430037020605E
:1058100012E0A66B77003A4601F09EFF054600288D
:10582000E1D000EB0608404629463246FDF7CEFCA3
:10583000C4F800806563A7630020BDE8F081000024
:1058400070B50E461446054618B183690BB9FDF7CD
:105850009BFA224B9C4201D16C6808E0204B9C4291
:1058600001D1AC6803E01F4B9C4208BFEC68A36900
:10587000A360A3891A0709D523693BB1236920686E
:10588000F6B2C01A636998420FDB08E02846214649
:1058900000F03CF80028F1D04FF0FF3070BD2846F2
:1058A0002146FDF7C1F90028F6D1A3680130013B7C
:1058B000A36023685A1C22601E706369984204D05A
:1058C000A389DB0707D50A2E05D128462146FDF717
:1058D000ABF90028E0D1304670BD00BF109300083E
:1058E000309300085093000838B5074C0546002057
:1058F0002060084611461A46FAF742FF431C02D1BF
:10590000236803B12B6038BDB4050020324B70B55D
:105910001D6806460C4625B1AB6913B92846FDF74C
:1059200033FA2E4B9C4201D16C6808E02C4B9C4210
:1059300001D1AC6803E02B4B9C4208BFEC68A28904
:1059400093B2190720D4DD0605D4092342F04002A2
:105950003360A2813BE0580712D5616B41B104F17D
:105960004403994202D03046FDF742FC00236363B2
:10597000A38923F02403A3810023636023692360A8
:10598000A38943F00803A38123694BB9A38903F4D6
:105990002073B3F5007F03D030462146FDF7ACFB02
:1059A000A38913F0010205D00022A260626952426D
:1059B000A26103E0990758BF6269A26022694AB9EF
:1059C00003F0800080B230B143F04003A3814FF078
:1059D000FF3070BD002070BDA801002010930008AA
:1059E00030930008509300082DE9F843294D0646EE
:1059F0002C680F46914698460CB9274C2C6063687A
:105A00001F2B12DD254B1BB94FF0FF30BDE8F8838B
:105A10008C20FDF7BDFB04460028F5D02A68002342
:105A2000026043602860C0F888304EB3D4F8880024
:105A300078B91A4B002BE7D04FF48470FDF7A8FB20
:105A40000028E1D00023C0F80031C0F80431C4F8C8
:105A500088006568012340F8259000EB850203FA71
:105A600005F5D0F80031022E43EA0503C0F80031F5
:105A7000C2F8808004D1D0F804311D43C0F804512D
:105A8000636800205A1C0233626044F82370BDE84A
:105A9000F88300BF20050020940400209131000805
:105AA0002DE9F74F824689462D4F3C68002C54D093
:105AB0006268D4F8885002F10208561E05EB820B8A
:105AC00004EB8808002E36DBB9F1000F04D065B373
:105AD000DBF87C204A4528D1616858F8042C01394C
